:100000000C9460000C94CB010C94CB010C94CB01AC
:100010000C94CB010C94CB010C94CB010C94CB0130
:100020000C94CB010C94CB010C94CB010C94CB0120
:100030000C94CB010C94CB010C94CB010C94CB0110
:100040000C94CB010C94CB010C94CB010C94CB0100
:100050000C94CB010C94CB010C94CB010C94CB01F0
:100060000C94CB010C94CB010C94CB010C94CB01E0
:100070000C94CB010C94CB010C94CB010C94CB01D0
:100080000C94CB010C94CB010C94CB010C94CB01C0
:100090000C94CB010C94CB010C94CB010C94CB01B0
:1000A0000C94CB010C94CB010C94CB010C94CB01A0
:1000B0000C94CB01010001100003A4011001128077
:1000C00011241FBECFEFD8E0DEBFCDBFE4EBF0E0E0
:1000D00040E017C0B591A59135912591059107FD97
:1000E0000CC095918591EF01F92FE82F05900D92A5
:1000F000A217B307D9F7FE0104C01D92A217B307D8
:10010000E1F7E03CF40731F70E948A000C94A50166
:04011000F894FFCF91
:100114008FEF84B915B80E94C20160E086E00E94A6
:10012400830160EF87E00E9483010E943101809186
:100134001001909111010E949501833379F018F414
:10014400823349F011C0843319F0823451F00CC069
:1001540082E085B90AC084E085B907C088E085B922
:1001640004C080E185B901C015B82FEF86E791E09E
:0E017400215080409040E1F700C00000D6CF3F
:1001820094EA9093BC009091BC009923E4F790917B
:10019200B900987F983011F0903191F78093BB00AD
:1001A20094E89093BC009091BC009923E4F790915D
:1001B200B900987F903211F0983541F494E9909308
:0E01C200BC009091BC0094FDFCCFDACF0895F4
:1001D00094EA9093BC009091BC009923E4F790912D
:1001E000B900987F983011F0903191F48093BB0062
:1001F00084E88093BC008091BC008823E4F7809160
:10020000B900887F883131F0803431F480E008957E
:0C02100081E0089580E0089581E00895E9
:10021C00CF93DF93C82FD0E061E070E002C0660F8F
:10022C00771F8A95E2F78FE0682783E00E948301AD
:10023C0081E00E945E01809582958F7090E0CC0FDA
:10024C00DD1FCC0FDD1F02C0880F991FCA95E2F786
:06025C00DF91CF9108952F
:10026200CF93DF930E944A01EC012FEF86E791E0E2
:10027200215080409040E1F700C000000E944A01F6
:100282008C239D239093110180931001DF91CF91D4
:020292000895CD
:100294000F931F93CF93C0E000E010E006C08C2FB3
:1002A4000E940E01082B192BCF5FC430C0F3C80184
:0802B400CF911F910F910895F5
:1002BC00CF93C82F80E40E94C1008C2F0E94710143
:1002CC0081E40E94C8010E94B001C82F0E94BA01AB
:0602DC008C2FCF91089564
:1002E2008093BB0084E88093BC008091BC0088238B
:1002F200E4F78091B900887F883211F081E0089597
:0403020080E00895FA
:10030600CF93DF93D82FC62F80E40E94C1008D2F94
:100316000E9471018C2F0E9471010E94BA01DF9127
:04032600CF910895D6
:10032A00E0E005C096958795EF5FE03139F080FFF0
:10033A00F9CFF0E0E050FF4F8081089580E0089502
:10034A00EC010E94D0010E94CF01CE010E94D1018E
:06035A00CE010E94CD015E
:1003600084E88093BC008091BC008823E4F78091EE
:04037000BB00089531
:1003740084E98093BC008091BC0084FDFCCF089587
:0C0384001092B90088E48093B80008953E
:060390000E94E800089540
:040396000C940000C3
:04039A000E94880035
:02039E000895C0
:0203A0000895BE
:0203A2000895BC
:1003A4002A302344373839433435364231323341E5
:00000001FF
