:100000000C945D000C940B010C94CB000C940B0130
:100010000C940B010C940B010C940B010C940B0130
:100020000C940B010C940B010C940B010C940B0120
:100030000C940B010C940B010C940B010C940B0110
:100040000C940B010C940B010C940B010C940B0100
:100050000C940B010C940B010C940B010C940B01F0
:100060000C940B010C940B010C940B010C940B01E0
:100070000C940B010C940B010C940B010C940B01D0
:100080000C940B010C940B010C940B010C940B01C0
:100090000C940B010C940B010C940B010C940B01B0
:1000A0000C940B010C940B010C940B010C940B01A0
:1000B0000C940B0101000103800011241FBECFEF3F
:1000C000D8E0DEBFCDBFE4EBF0E040E017C0B59173
:1000D000A59135912591059107FD0CC095918591CC
:1000E000EF01F92FE82F05900D92A217B307D9F76A
:1000F000FE0104C01D92A217B307E1F7E93BF40724
:0E01000031F70E9487000C940001F894FFCFA5
:10010E001092010110920001109202018CE0809376
:10011E00690082E08DBB78948FEF84B91AB815B858
:10012E0028E03FEF8091000190910101892B51F160
:10013E008091000190910101883B9B4050F080918D
:10014E000201813011F435B907C025B910920201B0
:10015E0003C025B9109202018FE99FE00197F1F7D4
:10016E0000C000008091000190910101892BD1F215
:10017E00809100019091010101979093010180936C
:08018E000001D0CF15B8CECF5F
:100196001F921FB61F9211242F938F939F93EF9355
:1001A600FF9382E08CBBEFE1FEE43197F1F700C0EC
:1001B6000000E199F7CF1092020180910001909121
:1001C60001018536910550F0809100019091010161
:1001D600813A9F4018F481E08093020180EA9FE013
:1001E6009093010180930001FF91EF919F918F9170
:0A01F6002F911F901FBE1F90189557
:10020000EC010E9410010E940F01CE010E94110119
:06021000CE010E940D0169
:040216000C94000044
:04021A000E948500B9
:02021E00089541
:0202200008953F
:0202220008953D
:00000001FF
