:100000000C9460000C9480020C9480020C9480028A
:100010000C9480020C9480020C9480020C94800258
:100020000C9480020C9480020C9480020C94800248
:100030000C9480020C9480020C9480020C94800238
:100040000C9480020C9480020C9480020C94800228
:100050000C9480020C9480020C9480020C94800218
:100060000C9480020C9480020C9480020C94800208
:100070000C9480020C9480020C9480020C948002F8
:100080000C9480020C9480020C9480020C948002E8
:100090000C9480020C9480020C9480020C948002D8
:1000A0000C9480020C9480020C9480020C948002C8
:1000B0000C9480020100011000050E011001138054
:1000C00011241FBECFEFD8E0DEBFCDBFE4EBF0E0E0
:1000D00040E017C0B591A59135912591059107FD97
:1000E0000CC095918591EF01F92FE82F05900D92A5
:1000F000A217B307D9F7FE0104C01D92A217B307D8
:10010000E1F7E03CF40731F70E9419010C945A0220
:04011000F894FFCF91
:10011400CF93DF932FEF83EC99E021508040904000
:10012400E1F700C00000C0E0D0E01EC080E380938F
:10013400120160E382E00E942B0260911201686068
:100144006093120182E00E942B0260911201677F8A
:100154006093120182E00E942B0287EE93E00197E4
:10016400F1F700C000002196C330D105FCF280E213
:100174008093120160E282E00E942B0260911201DE
:1001840068606093120182E00E942B026091120168
:10019400677F6093120182E00E942B0287EE93E056
:1001A4000197F1F700C0000088E20E94DD018CE0B5
:1001B4000E94DD010E944D0286E00E94DD01DF9174
:0401C400CF9108953A
:1001C8001F93CF93DF93D82FC0911201CF70182FB0
:1001D800107F1C2B612F82E00E942B02612F686028
:1001E80082E00E942B0200000000612F677F82E0FE
:1001F8000E942B0220E1D29FC0011124C82B6C2F32
:1002080082E00E942B026C2F686082E00E942B0221
:1002180000000000C77F6C2F82E00E942B02C09371
:0A0228001201DF91CF911F9108959C
:100232000E94770260E086E00E942B0260EF87E076
:100242000E942B020E948A0080E80E94DD010E9427
:10025200B20180911001909111010E943D02C82FBC
:10026200882329F00E944D028C2F0E94C8012FEF93
:1002720089EF90E0215080409040E1F700C00000FB
:02028200E6CFC5
:1002840094EA9093BC009091BC009923E4F7909178
:10029400B900987F983011F0903191F78093BB00AA
:1002A40094E89093BC009091BC009923E4F790915A
:1002B400B900987F903211F0983541F494E9909305
:0E02C400BC009091BC0094FDFCCFDACF0895F1
:1002D20094EA9093BC009091BC009923E4F790912A
:1002E200B900987F983011F0903191F48093BB005F
:1002F20084E88093BC008091BC008823E4F780915D
:10030200B900887F883131F0803431F480E008957B
:0C03120081E0089580E0089581E00895E6
:10031E00CF93DF93C82FD0E061E070E002C0660F8C
:10032E00771F8A95E2F78FE0682783E00E942B0201
:10033E0081E00E940602809582958F7090E0CC0F2E
:10034E00DD1FCC0FDD1F02C0880F991FCA95E2F783
:06035E00DF91CF9108952C
:10036400CF93DF930E94F201EC010E94F20104C0DA
:100374000E94F201009719F08C179D07C9F3D093DE
:0C0384001101C0931001DF91CF9108958A
:10039000CF93C82F6091120164606093120182E0D4
:1003A0000E942B028C2F0E94E40087EE93E00197BD
:0A03B000F1F700C00000CF9108959E
:1003BA00CF93C82F609112016B7F6093120182E084
:1003CA000E942B028C2F0E94E40087EE93E0019793
:0A03DA00F1F700C00000CF91089574
:1003E4000F931F93CF93C0E000E010E006C08C2F62
:1003F4000E948F01082B192BCF5FC430C0F3C801B2
:08040400CF911F910F910895A3
:10040C00CF93C82F80E40E9442018C2F0E941902C6
:10041C0081E40E947D020E946502C82F0E946F0237
:06042C008C2FCF91089512
:100432008093BB0084E88093BC008091BC00882339
:10044200E4F78091B900887F883211F081E0089545
:0404520080E00895A9
:10045600CF93DF93D82FC62F80E40E9442018D2FC1
:100466000E9419028C2F0E9419020E946F02DF91CE
:04047600CF91089585
:10047A00E0E005C096958795EF5FE03139F080FF9F
:10048A00F9CFF0E0E050FF4F8081089580E00895B1
:10049A0081E00E94DD0181E0809312018FE19EE4F8
:0A04AA000197F1F700C0000008956B
:1004B400EC010E9485020E948402CE010E94860201
:0604C400CE010E9482023D
:1004CA0084E88093BC008091BC008823E4F7809183
:0404DA00BB000895C6
:1004DE0084E98093BC008091BC0084FDFCCF08951C
:0C04EE001092B90088E48093B8000895D3
:0604FA000E946901089553
:040500000C94000057
:040504000E948800C9
:02050800089554
:02050A00089552
:02050C00089550
:10050E002A30234437383943343536423132334179
:00000001FF
