:100000000C9463000C94A5030C94A5030C94A50315
:100010000C94A5030C94A5030C94A5030C94A503C0
:100020000C94A5030C94A5030C94A5030C94A503B0
:100030000C94A5030C94A5030C94A5030C94A503A0
:100040000C94A5030C94A5030C94A5030C94A50390
:100050000C94A5030C94A5030C94A5030C94A50380
:100060000C94A5030C94A5030C94A5030C94A50370
:100070000C94A5030C94A5030C94A5030C94A50360
:100080000C94A5030C94A5030C94A5030C94A50350
:100090000C94A5030C94A5030C94A5030C94A50340
:1000A0000C94A5030C94A5030C94A5030C94A50330
:1000B0000C94A503010001128001120128000758C9
:1000C00001280129800011241FBECFEFD8E0DEBF38
:1000D000CDBFE4EBF0E040E017C0B591A5913591BC
:1000E0002591059107FD0CC095918591EF01F92FA0
:1000F000E82F05900D92A217B307D9F7FE0104C0AF
:100100001D92A217B307E1F7E53CF40731F70E940F
:0A01100037020C948C03F894FFCF23
:0A011A004E4F2044657669636500CE
:10012400CF92DF92EF92FF92CF93DF932091100151
:1001340030911101C9018827987F8115984F21F4C6
:100144008DE28093000103C080E28093000180E08F
:1001540090E0C12CD12C760110C020FF0BC0FC0113
:10016400EE0FFF1FEE5EFE4F40815181C40ED51E7F
:10017400E11CF11C3695279501968B3091056CF3A3
:100184004AE051E0C701B6010E94740180910A015E
:10019400805D80930101803319F480E28093010132
:1001A40080910B01805D80930201803319F480E219
:1001B40080930201AAE0B1E012968C911297E0E0DC
:1001C400F1E0805D83838EE2848313968C91139790
:1001D400805D858314968C911497805D8683159633
:1001E4008C91805D87838091100180FF06C085E338
:1001F40080930801C0E0D0E00BC080E38093080145
:10020400F9CFFE01E050FF4F80810E941C0321962C
:10021400C930D105B4F38FED0E941C0383E40E941E
:100224001C03DF91CF91FF90EF90DF90CF90089562
:10023400CF93DF932FEF83EC99E0215080409040DF
:10024400E1F700C00000C0E0D0E01EC080E380936E
:10025400280160E382E00E946D03609128016860D8
:100264006093280182E00E946D0360912801677FFA
:100274006093280182E00E946D0387EE93E001976A
:10028400F1F700C000002196C330D105FCF280E2F2
:100294008093280160E282E00E946D03609128014E
:1002A40068606093280182E00E946D0360912801D8
:1002B400677F6093280182E00E946D0387EE93E0DC
:1002C4000197F1F700C0000088E20E9431038CE03E
:1002D4000E9431030E947F0386E00E943103DF9174
:0402E400CF91089519
:1002E800DC01CB01FA01108207C0805A9648A14070
:1002F800B10920812F5F2083803A26E8920721E008
:10030800A207B10590F7118207C080519742A10951
:10031800B10921812F5F2183803127E29207A1054E
:10032800B10598F7128207C0885E9340A109B10908
:1003380022812F5F2283883E23E09207A105B10521
:1003480098F7138207C084569109A109B10923813E
:100358002F5F238384369105A105B105A0F7148288
:1003680006C00A97A109B10924812F5F24838A3026
:100378009105A105B105A8F7158206C00197A10945
:10038800B10925812F5F25830097A105B105B1F734
:020398000895C6
:10039A001F93CF93DF93D82FC0912801CF70182FC6
:1003AA00107F1C2B612F82E00E946D03612F686011
:1003BA0082E00E946D0300000000612F677F82E0E7
:1003CA000E946D0320E1D29FC0011124C82B6C2F1B
:1003DA0082E00E946D036C2F686082E00E946D03C8
:1003EA0000000000C77F6C2F82E00E946D03C0935B
:0A03FA002801DF91CF911F910895B3
:1004040010921101109210010E948A02892B51F15D
:100414008CEC0E94460384E40E9446030E94AE02D0
:10042400892BE1F30E948A028CEC0E9446038EEB36
:100434000E9446030E94EF029093110180931001E1
:100444000E94EF0220E030E0382F8091100190915B
:100454001101282B392B309311012093100180E0D6
:0A04640090E0089580E090E808950C
:10046E000E949F0360E086E00E946D030E941A01C5
:10047E000E9402028115904889F46AE171E080E0E1
:10048E000E9406038FEF93ED20E3815090402040B1
:10049E00E1F700C000000E947F03EACF0E949200A5
:1004AE008FEF93ED20E3815090402040E1F700C0A4
:0804BE0000000E947F03DCCF67
:1004C60094EA9093BC009091BC009923E4F7909134
:1004D600B900987F983011F0903191F78093BB0066
:1004E60094E89093BC009091BC009923E4F7909116
:1004F600B900987F903211F0983541F494E99093C1
:0E050600BC009091BC0094FDFCCFDACF0895AC
:100514008AB180618AB98BB18F7E8BB98FE797E0FE
:100524000197F1F700C000008AB18F7E8AB98BB1C0
:100534008F7E8BB9EFE8F1E03197F1F700C000004E
:1005440099B1EFEEF5E03197F1F700C0000081E0DA
:0805540094FD80E090E00895A1
:10055C008AB180618AB98BB18F7E8BB98AE08A951A
:10056C00F1F700C08AB18F7E8AB98BB18F7E8BB9BF
:10057C00E5E3EA95F1F7000099B19071E3ECF0E056
:10058C003197F1F700C0000081E0911101C080E0CB
:04059C0090E008954E
:1005A00080719AB190619AB99BB19F7E9BB99AE094
:1005B0009A95F1F700C09BB1892B8BB987EE90E03B
:1005C0000197F1F700C000008AB18F7E8AB98BB124
:0E05D0008F7E8BB995E09A95F1F700000895A3
:1005DE001F93CF93DF93C0E0D0E010E007C01695D5
:1005EE000E94AE02892B09F010682196C830D10501
:0E05FE00B4F3812F90E0DF91CF911F9108950B
:10060C00CF92DF92EF926B01E82E06C09FEFC91AD2
:10061C00D90AE90A0E941C03F6018491E7FC808147
:0C062C008111F4CFEF90DF90CF90089583
:10063800CF93C82F6091280164606093280182E0FD
:100648000E946D038C2F0E94CD0187EE93E00197E5
:0A065800F1F700C00000CF910895F3
:10066200CF93C82F609128016B7F6093280182E0AD
:100672000E946D038C2F0E94CD0187EE93E00197BB
:0A068200F1F700C00000CF910895C9
:10068C001F93CF93DF93182FC0E0D0E007C0812FCA
:10069C00817081950E94D00216952196C830D105A3
:0A06AC00B4F3DF91CF911F91089580
:1006B6008093BB0084E88093BC008091BC008823B3
:1006C600E4F78091B900887F883211F081E00895BF
:0406D60080E0089523
:1006DA00CF93DF93D82FC62F80E40E9463028D2F19
:1006EA000E945B038C2F0E945B030E949703DF9199
:0406FA00CF910895FF
:1006FE0081E00E94310381E0809328018FE19EE426
:0A070E000197F1F700C00000089504
:10071800EC010E94AA030E94A903CE010E94AB0328
:06072800CE010E94A703B0
:10072E0084E98093BC008091BC0084FDFCCF0895C9
:0C073E001092B90088E48093B800089580
:04074A000C9400000B
:04074E000E948B007A
:02075200089508
:02075400089506
:02075600089504
:100758003E007D00FA00F401E803D007A00F401F17
:06076800803E007D00FA56
:00000001FF
