:100000000C9463000C94BA010C94BA010C94BA01DC
:100010000C94BA010C94BA010C94BA010C94BA0174
:100020000C94BA010C94BA010C94BA010C94BA0164
:100030000C94BA010C94BA010C94BA010C94BA0154
:100040000C94BA010C94BA010C94BA010C94BA0144
:100050000C94BA010C94BA010C94BA010C94BA0134
:100060000C94BA010C94BA010C94BA010C94BA0124
:100070000C94BA010C94BA010C94BA010C94BA0114
:100080000C94BA010C94BA010C94BA010C94BA0104
:100090000C94BA010C94BA010C94BA010C94BA01F4
:1000A0000C94BA010C94BA010C94BA010C94BA01E4
:1000B0000C94BA0101000102800102010C000382CC
:1000C000010C010F800011241FBECFEFD8E0DEBF6E
:1000D000CDBFE4EBF0E040E017C0B591A5913591BC
:1000E0002591059107FD0CC095918591EF01F92FA0
:1000F000E82F05900D92A217B307D9F7FE0104C0AF
:100100001D92A217B307E1F7E53CF40731F70E940F
:0A0110008D000C94A501F894FFCFB8
:10011A008FEF8AB91BB80E9437012FEF81EE94E066
:10012A00215080409040E1F700C0000083E48093B2
:10013A007C008FE880937A002FEF89E698E12150BE
:10014A0080409040E1F700C000000E94B001EAE759
:10015A00F0E080818064808380917A0086FDFCCF04
:10016A008091780080930101809179008093000149
:10017A000E94E50080910E01805D80930E019091AE
:10018A000D01905D90930D0190910C01905D9093FB
:10019A000C010E948D018CE20E948D0180910D015B
:1001AA000E948D0180910C010E948D012FEF89E63A
:1001BA0098E1215080409040E1F700C00000BCCF98
:1001CA008091000183708093000120E030E080E09C
:1001DA0090E020C02830310574F44091010140FFBD
:1001EA0006C0F901EE5FFE4F5081850F911D4695BD
:1001FA00409301010DC04091000140FF06C0F90182
:10020A00EE5FFE4F5081850F911D46954093000188
:10021A002F5F3F4F2A303105ECF210920E0107C0D2
:10022A008456910920910E012F5F20930E01843686
:10023A009105B0F710920D0106C00A9720910D01A1
:10024A002F5F20930D018A309105B8F710920C01A7
:10025A0006C0019720910C012F5F20930C01009793
:04026A00C1F708953B
:10026E002FEF83EC99E0215080409040E1F700C0E1
:10027E00000020E030E010C080E38BB98BB18860C5
:10028E008BB98BB1877F8BB987EE93E00197F1F72E
:10029E0000C000002F5F3F4F233031056CF380E22A
:1002AE008BB98BB188608BB98BB1877F8BB987EE99
:1002BE0093E00197F1F700C0000088E20E949901D7
:1002CE008CE00E9499010E94B00186E00E94990183
:0202DE00089581
:1002E00029B12F70982F907F922B9BB99BB198606A
:1002F0009BB9000000009BB1977F9BB930E1839FC1
:10030000C0011124822B8BB98BB188608BB900009E
:0A03100000008BB1877F8BB90895C0
:10031A009BB194609BB90E94700187EE93E00197AC
:08032A00F1F700C00000089586
:100332009BB19B7F9BB90E94700187EE93E001976E
:08034200F1F700C0000008956E
:10034A00EC010E94BF010E94BE01CE010E94C001C1
:06035A00CE010E94BC016F
:1003600081E00E9499018FE19EE40197F1F700C0BE
:0403700000000895EC
:040374000C940000E5
:040378000E948B0054
:02037C000895E2
:02037E000895E0
:020380000895DE
:0A0382000101020408101F3E7DFA7D
:00000001FF
