:100000000C9463000C945D010C945D010C945D01F3
:100010000C945D010C945D010C945D010C945D01E8
:100020000C945D010C945D010C945D010C945D01D8
:100030000C945D010C945D010C945D010C945D01C8
:100040000C945D010C945D010C945D010C945D01B8
:100050000C945D010C945D010C945D010C945D01A8
:100060000C945D010C945D010C945D010C945D0198
:100070000C945D010C945D010C945D010C945D0188
:100080000C945D010C948D000C945D010C945D0149
:100090000C945D010C945D010C945D010C945D0168
:1000A0000C945D010C945D010C945D010C945D0158
:1000B0000C945D010100012080012001310002C883
:1000C00001310136800011241FBECFEFD8E0DEBF22
:1000D000CDBFE4EBF0E040E017C0B591A5913591BC
:1000E0002591059107FD0CC095918591EF01F92FA0
:1000F000E82F05900D92A217B307D9F7FE0104C0AF
:100100001D92A217B307E1F7E53CF40731F70E940F
:0A011000F0000C945201F894FFCFA8
:10011A001F920F920FB60F9211242F934F935F9352
:10012A006F937F938F939F93EF93FF93EAE7F0E0A8
:10013A0080818064808380917A0086FDFCCF409123
:10014A007800509179008091310190913201840FA9
:10015A00951F20913301E22FF0E0EE0FFF1FE050D0
:10016A00FF4F60817181861B970B909332018093B8
:10017A0031012F5F518340832F7020933301929571
:10018A0082958F7089279F708927893C910568F02D
:10019A00813921E0920758F0893522E0920748F028
:1001AA008132934040F488E007C081E005C082E0D4
:1001BA0003C084E001C080E18BB9FF91EF919F9168
:1001CA008F917F916F915F914F912F910F900FBEF9
:0601DA000F901F90189524
:1001E00082E084B99FEF9AB917B891E490937C00AC
:1001F00097E890937A0091E89093800099E090932B
:10020000810098E090933401109290009BE09093CD
:10021000910027EA31E6309399002093980080936B
:100220007100E0913401F0E0E05EFE4F8081809348
:100230008800789483B180958093350184FD07C050
:1002400013C08FE99FE00197F1F700C0000083B170
:100250008093350184FFF5CF809134018031C9F05E
:100260008F5F8093340115C083FD07C012C08FE9F2
:100270009FE00197F1F700C0000083B18093350142
:1002800083FFF5CF80913401882319F0815080934A
:100290003401E0913401F0E0E05EFE4F8081809314
:0402A0008800C8CF3B
:1002A400EC010E9462010E946101CE010E9463017F
:0602B400CE010E945F0173
:0402BA000C940000A0
:0402BE000E948B000F
:0202C20008959D
:0202C40008959B
:0202C600089599
:1002C8000514243343526171808F9FAEBDCDDCECA1
:0102D800FB2A
:00000001FF
