:020000020000FC
:020000002BC013
:1000080040C0DF93CF93BF93AF93AFB7AF93D030D8
:1000180019F4C03019F40895000000000000BCE095
:10002800A8E700001197E9F7219759F00000BFE011
:10003800AEE90000000000001197F1F72197B9F729
:100048000000AF91AFBFAF91BF91CF91DF910895FD
:100058008FEF8DBF88E08EBF8CE08093690082E0CF
:100068008DBB7894AFEFA4B9A7B9ABB9AA27AAB941
:100078003327AA27A5B9C4EFD1E0C3DFA395AF7092
:10008800F9CF8F939F9382E08CBBC5E0D0E0B9DFB6
:100098008CB381FDF8CF99B19270390F3E7338B99E
:0600A8008F919F91189555
:00000001FF
