:100000000C945D000C9457010C9457010C9457010B
:100010000C9457010C9457010C9457010C94570100
:100020000C9457010C9457010C9457010C945701F0
:100030000C9457010C9457010C9457010C945701E0
:100040000C9457010C9457010C9457010C945701D0
:100050000C9457010C9457010C9457010C945701C0
:100060000C9457010C9457010C9457010C945701B0
:100070000C9457010C9457010C9457010C945701A0
:100080000C9457010C9457010C9457010C94570190
:100090000C9457010C9457010C9457010C94570180
:1000A0000C9457010C9457010C9457010C94570170
:1000B0000C94570101000101800011241FBECFEFF5
:1000C000D8E0DEBFCDBFE4EBF0E040E017C0B59173
:1000D000A59135912591059107FD0CC095918591CC
:1000E000EF01F92FE82F05900D92A217B307D9F76A
:1000F000FE0104C01D92A217B307E1F7E93BF40724
:0E01000031F70E94D4000C943101F894FFCF27
:10010E0094EA9093BC009091BC009923E4F79091EF
:10011E00B900987F983011F0903191F78093BB0021
:10012E0094E89093BC009091BC009923E4F79091D1
:10013E00B900987F903211F0983541F494E990937C
:0E014E00BC009091BC0094FDFCCFDACF089568
:10015C0094EA9093BC009091BC009923E4F79091A1
:10016C00B900987F983011F0903191F48093BB00D6
:10017C0084E88093BC008091BC008823E4F78091D4
:10018C00B900887F883131F0803431F480E00895F3
:0C019C0081E0089580E0089581E008955E
:1001A8008FE08AB90E944E0160E086E00E941F013C
:1001B80060EF87E00E941F0167E083E00E941F0153
:1001C80081E00E94FA008095682F62956F706093B5
:1001D800000182E00E941F012FEF80E792E021508A
:0C01E80080409040E1F700C00000E6CF2E
:1001F400CF93C82F80E40E9487008C2F0E940D01AA
:1002040081E40E9454010E943C01C82F0E944601CF
:060214008C2FCF9108952C
:10021A008093BB0084E88093BC008091BC00882353
:10022A00E4F78091B900887F883211F081E008955F
:04023A0080E00895C3
:10023E00CF93DF93D82FC62F80E40E9487008D2F97
:10024E000E940D018C2F0E940D010E944601DF912C
:04025E00CF9108959F
:10026200EC010E945C010E945B01CE010E945D01D3
:06027200CE010E945901BB
:1002780084E88093BC008091BC008823E4F78091D7
:04028800BB0008951A
:10028C0084E98093BC008091BC0084FDFCCF089570
:0C029C001092B90088E48093B800089527
:0602A8000E94AE00089563
:0402AE000C940000AC
:0402B2000E94850021
:0202B6000895A9
:0202B8000895A7
:0202BA000895A5
:00000001FF
