:020000020000FC
:0200000029C015
:1000040044C0DF93CF93BF93AF93AFB7AF93D030D8
:1000140019F4C03019F40895000000000000BCE099
:10002400A8E700001197E9F7219759F00000BFE015
:10003400AEE90000000000001197F1F72197B9F72D
:100044000000AF91AFBFAF91BF91CF91DF91089501
:100054008FEF8DBF88E08EBF8FE08093690083E0CF
:100064008DBB7894AA27A4B9AFEFA5B9A7B9AA27DD
:10007400AAB9AFEFABB93327AA27A8B9C8EED3E022
:10008400C0DFA395A395AF73F8CF9F938F938FB7DA
:100094008F9383B180958E718695F0E0E6EB992776
:1000A400E80FF91F849188B98F918FBF8F919F9129
:1000B4001895000101030103030701030307030764
:0200C400070F24
:00000001FF
