:020000020000FC
:02000000F4C04A
:100054007CC08F9399B19F70807F890F8BB95B9A15
:10006400000000005B988F918295807F890F8BB987
:100074005B9A000000005B9808955A9AEADF8AEFC1
:1000840090E048D008955A98E4DF8AEF90E042D097
:10009400089581E0F8DF85E090E030D0089588ECA1
:1000A40090E02CD080E38BB95B9A000000005B9851
:1000B4008AEF90E02FD080E38BB95B9A00000000B8
:1000C4005B988AEF90E026D080E38BB95B9A0000BE
:1000D40000005B988AEF90E01DD080E28BB95B9AB8
:1000E400000000005B988AEF90E014D088E2CBDF38
:1000F4008CE0C9DFCEDF86E0C6DF08958F939F933F
:1001040087EE93E007D09F918F9100000000019744
:10011400A9F7089501970E949100E1F7089500005E
:1001240000000000000008954427C43620E0D207F0
:1001340020F0C456D0404395F8CF5527CA3018F064
:10014400CA505395FBCF6C2F0895A3DFE09178003C
:10015400F0917900D0E0C0E0F1FDEF96F1FDEF966B
:10016400F1FDEF96F1FDED96F0FDEF96F0FDEE96C4
:10017400E7FDEE96E6FD6F96E5FD6096E4FD2896B4
:10018400E3FD2496E2FD2296E1FD2196E0FD219611
:10019400CBDF405D505D605D842F0E943F008CE2A8
:1001A4000E943F00852F0E943F00862F0E943F003F
:1001B40080E20E943F0086E50E943F008FE60E9495
:1001C4003F008CE60E943F0084E70E943F0083E7E3
:1001D4000E943F0084EF91E091DF30917A00306417
:1001E40030937A0018958FEF8DBF88E08EBF8FEF24
:1001F4008AB988278BB953DF84E690E07FDF03E474
:1002040000937C000FEC00937A00789400010204C0
:0602140008101F3E7DFAF8
:00000001FF
