:020000020000FC
:1000000027C09F938F93BF93AF93AFB7AF939030B9
:1000100019F4803019F40895000000000000BCE0DD
:10002000A8E700001197E9F7019759F00000BFE039
:10003000AEE90000000000001197F1F70197B9F751
:100040000000AF91AFBFAF91BF918F919F91089585
:1000500093E088EE0FEF0AB9689400E80BB9D1DF9E
:10006000D0DF40F940FD00E440FF02E00BB9C9DFFA
:10007000C8DF40FD069540FF000FC0F7C2DF40F922
:06008000409540FBEECFAD
:00000001FF
