:100000000C945D000C9411020C9411020C941102DA
:100010000C9411020C9411020C9411020C94110214
:100020000C9411020C9411020C9411020C94110204
:100030000C9411020C9411020C9411020C941102F4
:100040000C9411020C9411020C9411020C941102E4
:100050000C9411020C9411020C9411020C941102D4
:100060000C9411020C9411020C9411020C941102C4
:100070000C9411020C9411020C9411020C941102B4
:100080000C9411020C9411020C9411020C941102A4
:100090000C9411020C9411020C9411020C94110294
:1000A0000C9411020C9411020C9411020C94110284
:1000B0000C94110201000101800011241FBECFEF3A
:1000C000D8E0DEBFCDBFE4EBF0E040E017C0B59173
:1000D000A59135912591059107FD0CC095918591CC
:1000E000EF01F92FE82F05900D92A217B307D9F76A
:1000F000FE0104C01D92A217B307E1F7E93BF40724
:0E01000031F70E9460010C94F801F894FFCFD3
:10010E004B6173696F756D697320566173696C65A8
:10011E00696F73204572676173746872696F004B03
:10012E006173696D617469732044696D6974726974
:10013E006F73204D6567616C6F75706F6C6F67695B
:05014E007374776E00E0
:10015400CF93DF932FEF83EC99E0215080409040C0
:10016400E1F700C00000C0E0D0E01EC080E380934F
:10017400000160E382E00E94D9016091000168609F
:100184006093000182E00E94D90160910001677FC1
:100194006093000182E00E94D90187EE93E0019709
:1001A400F1F700C000002196C330D105FCF280E2D3
:1001B4008093000160E282E00E94D9016091000115
:1001C40068606093000182E00E94D901609100019F
:1001D400677F6093000182E00E94D90187EE93E07B
:1001E4000197F1F700C0000088E20E94B2018CE0A0
:1001F4000E94B2010E94EB0186E00E94B201DF91ED
:04020400CF910895F9
:100208001F93CF93DF93D82FC0910001CF70182F81
:10021800107F1C2B612F82E00E94D901612F68603A
:1002280082E00E94D90100000000612F677F82E010
:100238000E94D90120E1D29FC0011124C82B6C2F44
:1002480082E00E94D9016C2F686082E00E94D90187
:1002580000000000C77F6C2F82E00E94D901C09384
:0A0268000001DF91CF911F9108956E
:1002720094EA9093BC009091BC009923E4F790918A
:10028200B900987F983011F0903191F78093BB00BC
:1002920094E89093BC009091BC009923E4F790916C
:1002A200B900987F903211F0983541F494E9909317
:0E02B200BC009091BC0094FDFCCFDACF089503
:1002C0000E940B0260E086E00E94D9010E94AA0011
:1002D0000E94EB0180E80E94B2016EE071E080E0D4
:1002E0000E94870180EC0E94B2016DE271E080E023
:1002F0000E94870188E10E94B2012FEF84E39CE015
:0E030000215080409040E1F700C00000F3CF94
:10030E00CF92DF92EF926B01E82E06C09FEFC91AD3
:10031E00D90AE90A0E949D01F6018491E7FC8081C9
:0C032E008111F4CFEF90DF90CF90089584
:10033A00CF93C82F6091000164606093000182E04E
:10034A000E94D9018C2F0E94040187EE93E0019745
:0A035A00F1F700C00000CF910895F4
:10036400CF93C82F609100016B7F6093000182E0FE
:100374000E94D9018C2F0E94040187EE93E001971B
:0A038400F1F700C00000CF910895CA
:10038E008093BB0084E88093BC008091BC008823DE
:10039E00E4F78091B900887F883211F081E00895EA
:0403AE0080E008954E
:1003B200CF93DF93D82FC62F80E40E9439018D2F6F
:1003C2000E94C7018C2F0E94C7010E940302DF9185
:0403D200CF9108952A
:1003D60081E00E94B20181E0809300018FE19EE4FA
:0A03E6000197F1F700C00000089530
:1003F000EC010E9416020E941502CE010E94170213
:06040000CE010E94130270
:1004060084E98093BC008091BC0084FDFCCF0895F4
:0C0416001092B90088E48093B8000895AB
:040422000C94000036
:040426000E948500AB
:02042A00089533
:02042C00089531
:02042E0008952F
:00000001FF
