:020000020000FC
:020000002BC013
:1000080038C0DF93CF93BF93AF93AFB7AF93D030E0
:1000180019F4C03019F40895000000000000BCE095
:10002800A8E700001197E9F7219759F00000BFE011
:10003800AEE90000000000001197F1F72197B9F729
:100048000000AF91AFBFAF91BF91CF91DF910895FD
:100058008FEF8DBF88E08EBF82E08DBB8CE08093F0
:1000680069007894AFEFA4B9ABB9AA27AAB9000080
:10007800FECFCF93DF93DFB7DF938F93AF9382E009
:100088008CBBC5E0D0E0BDDF8CB381FDF8CF7894A0
:10009800A6F48FEF85B9D3E0C8EEB3DF88E085B961
:1000A800DBE0C8EBAEDF882785B9CF91DF91DFBFF2
:1000B800DF918F91AF91E8941895689488E085B99D
:1000C800C0EADFE09EDF882785B9CF91DF91DFBFE7
:0A00D800DF918F91AF91E894189525
:00000001FF
