:100000000C9460000C945E030C945E030C945E03ED
:100010000C945E030C945E030C945E030C945E03DC
:100020000C945E030C945E030C945E030C945E03CC
:100030000C945E030C945E030C945E030C945E03BC
:100040000C945E030C945E030C945E030C945E03AC
:100050000C945E030C948A000C945E030C945E0373
:100060000C945E030C945E030C945E030C945E038C
:100070000C945E030C945E030C945E030C945E037C
:100080000C945E030C945E030C945E030C945E036C
:100090000C945E030C945E030C945E030C945E035C
:1000A0000C945E030C945E030C945E030C945E034C
:1000B0000C945E030100011080011001550006CA76
:1000C00011241FBECFEFD8E0DEBFCDBFE4EBF0E0E0
:1000D00040E017C0B591A59135912591059107FD97
:1000E0000CC095918591EF01F92FE82F05900D92A5
:1000F000A217B307D9F7FE0104C01D92A217B307D8
:10010000E1F7E03CF40731F70E94EC020C94410364
:04011000F894FFCF91
:100114001F920F920FB60F9211241F932F933F93A8
:100124004F935F936F937F938F939F93AF93BF93FB
:10013400CF93DF93EF93FF9380917800809308012E
:10014400809179008093020140E351E060E82EE061
:1001540031E08AE00E94690163E071E080910E0160
:1001640090910F010E94B902809103018430A1F1A2
:1001740041E0843009F040E021E0833009F020E0E0
:100184003091040191E03A3008F490E09223411157
:1001940025C021F591E0333008F490E0922301F575
:1001A40041E0823009F040E091E0363008F490E01C
:1001B4009423211117C0B1F421E0813009F020E02B
:1001C40091E0393008F490E0922341110DC061F4BC
:1001D400813061F010E00BC01FE309C01FE107C0CC
:1001E4001FE005C017E003C013E001C011E0C09197
:1001F4000E01D0910F01C85ED340D0930101C0938A
:10020400000140E151E060E820E031E080E10E943B
:10021400690169E071E080910001909101010E94FF
:10022400B902CB3CD54218F180910E0190910F0197
:10023400893E9340E0F06CE070E084E491E00E9439
:10024400FC011F7315B98FE792E322E081509040BF
:100254002040E1F700C0000015B88FE792E322E0E8
:10026400815090402040E1F700C000001CC065E0D0
:1002740070E080E591E00E94FC018FEF94E624E0B9
:10028400815090402040E1F700C0000080910001BF
:1002940090910101815797418F3F9C4718F481E069
:1002A40085B901C015B8FF91EF91DF91CF91BF914E
:1002B400AF919F918F917F916F915F914F913F91FA
:0E02C4002F911F910F900FBE0F901F90189555
:1002D2006F927F928F929F92AF92CF92DF92EF9224
:1002E200CF93DF936A01E62EE901803131F51BC01D
:1002F2008881998180FF10C0A901440F551F3601E2
:100302008E2C640E751E811C57FD8A94F301582DA4
:100312000E945603A60FB71F9695879599838883E7
:100322002F5F3F4F04C020E030E0A0E0B0E020317A
:100332003105F4F2B983A88353C0909102019370FE
:100342009093020119821882A0E0B0E043C0A83065
:10035200B10504F59091080190FF16C0688079807C
:100362009D01220F331F4601AE2C820E931EA11C4B
:1003720037FDAA944A2D9401F401542F0E9456038A
:10038200660D771D79836883909108019695909305
:1003920008011FC09091020190FF16C06880798009
:1003A2009D01220F331F4601AE2C820E931EA11C0B
:1003B20037FDAA944A2D9401F401542F0E9456034A
:1003C200660D771D798368839091020196959093CB
:1003D20002011196282F30E0A217B3070CF4B7CF11
:1003E200DF91CF91EF90DF90CF90AF909F908F9061
:0603F2007F906F9008955A
:1003F800EF92FF920F931F93CF93DF937C018B01B2
:100408000E944C0380E80E943503C0E0D0E007C09A
:10041800F701EC0FFD1F80810E9429032196C01768
:10042800D107B4F380EC0E943503C3E0D1E08881A2
:10043800805D0E9429038CE20E9429038981805DE6
:100448000E9429038A81805D0E9429038B81805D37
:100458000E9429038C81805D0E94290386E50E9401
:10046800290380910E0190910F01883E934038F442
:10047800E9E0F1E0148213821282118210828091E5
:100488000901882321F0805D0E94290303C080E2CE
:100498000E94290380910901811104C080910A01F9
:1004A800882331F080910A01805D0E94290303C0EE
:1004B80080E20E942903C9E0D1E08A81805D0E9420
:1004C80029038CE20E9429038B81805D0E94290305
:1004D8008C81805D0E94290380E70E94290380E7C0
:1004E8000E9429038DE60E942903DF91CF911F9175
:0804F8000F91FF90EF900895B1
:100500002FEF83EC99E0215080409040E1F700C04C
:10051000000020E030E010C080E38BB98BB1886030
:100520008BB98BB1877F8BB987EE93E00197F1F799
:1005300000C000002F5F3F4F233031056CF380E295
:100540008BB98BB188608BB98BB1877F8BB987EE04
:1005500093E00197F1F700C0000088E20E943503A4
:100560008CE00E9435030E944C0386E00E94350314
:020570000895EC
:10057200FB01108205C08051974220812F5F2083AA
:10058200803127E29207B8F7118205C0885E934056
:1005920021812F5F2183883E23E09207B8F71282E0
:1005A20005C08456910922812F5F228384369105EA
:1005B200C0F7138204C00A9723812F5F23838A30F6
:1005C2009105C8F7148204C0019724812F5F248308
:0605D2000097D1F7089527
:1005D8008FEF8AB984B915B81BB80E9480020E94AF
:1005E8004C032FEF81EE94E0215080409040E1F7DA
:1005F80000C0000083E480937C008FE880937A0039
:100608007894EAE7F0E08081806480837894F9CF79
:1006180029B12F70982F907F922B9BB99BB198602E
:100628009BB9000000009BB1977F9BB930E1839F85
:10063800C0011124822B8BB98BB188608BB9000063
:0A06480000008BB1877F8BB9089585
:100652009BB194609BB90E940C0387EE93E00197D3
:08066200F1F700C0000008954B
:10066A009BB19B7F9BB90E940C0387EE93E0019795
:08067A00F1F700C00000089533
:10068200EC010E9463030E946203CE010E94640394
:06069200CE010E9460038E
:1006980081E00E9435038FE19EE40197F1F700C0E5
:0406A80000000895B1
:1006AC0057FD03C0659175910895619171910895FD
:0406BC000C9400009A
:0406C0000E9488000C
:0206C400089597
:0206C600089595
:0206C800089593
:1006CA0000000200030006000C001900320063005B
:1006DA00C6008D011A033406670CCE189D313A63A1
:1006EA0031006200C30086010D031B06350C6A182F
:0406FA00D430A861EF
:0C06FE00474153204445544543544544B3
:05070A00434C45415283
:00000001FF
