:100000000C9463000C9475050C9475050C9475059F
:100010000C9475050C9475050C9475050C94750578
:100020000C9475050C9475050C9475050C94750568
:100030000C9475050C9475050C9475050C94750558
:100040000C9475050C9475050C9475050C94750548
:100050000C9475050C9475050C9475050C94750538
:100060000C9475050C9475050C9475050C94750528
:100070000C9475050C9475050C9475050C94750518
:100080000C9475050C9475050C9475050C94750508
:100090000C9475050C9475050C9475050C947505F8
:1000A0000C9475050C9475050C9475050C947505E8
:1000B0000C9475050100016880016801A2000AF82E
:1000C00001A201A7800011241FBECFEFD8E0DEBF40
:1000D000CDBFE4EBF0E040E017C0B591A5913591BC
:1000E0002591059107FD0CC095918591EF01F92FA0
:1000F000E82F05900D92A217B307D9F7FE0104C0AF
:100100001D92A217B307E1F7E53CF40731F70E940F
:0A01100002020C944F05F894FFCF93
:10011A004E555253452043414C4C00434845434BAE
:10012A002054454D50455241545552450043484587
:0F013A00434B205052455353555245004F4B00F5
:10014A00CF93DF9310920D0110920E0110920F01BE
:10015A00109210012091470130914801C901882766
:10016A00987F8115984F31F48DE28093000180E0E9
:10017A0090E025C080E280930001F9CF20FF1CC0E7
:10018A00FC01EE0FFF1FE859FE4F0190F081E02DB0
:10019A0040910D0150910E0160910F017091100173
:1001AA004E0F5F1F611D711D40930D0150930E018B
:1001BA0060930F01709310013695279501968B3045
:1001CA009105E4F280910D0190910E01A0910F0129
:1001DA00B0911001BC01CD016052714D8F4F9F4FFC
:1001EA0060930D0170930E0180930F01909310019B
:1001FA00C0E0D1E0D0934001C0933F0149E351E010
:10020A000E94A90180913901805D8983803349F474
:10021A0080E28093010182E091E090934001809313
:10022A003F0180913A01805D80930201803349F455
:10023A0080E28093020183E091E0909340018093F1
:10024A003F01A9E3B1E012968C911297E0E0F1E048
:10025A00805D83838EE2848313968C911397805DED
:10026A00858314968C911497805D868315968C915C
:10027A00805D87838091470180FF04C085E3809376
:10028A00080103C080E38093080110920901DF91FD
:04029A00CF91089563
:10029E00CF93DF932FEF83EC99E021508040904075
:1002AE00E1F700C00000C0E0D0E01EC080E3809304
:1002BE00A60160E382E00E9413056091A6016860CA
:1002CE006093A60182E00E9413056091A601677FEC
:1002DE006093A60182E00E94130587EE93E00197DA
:1002EE00F1F700C000002196C330D105FCF280E288
:1002FE008093A60160E282E00E9413056091A60140
:10030E0068606093A60182E00E9413056091A601C9
:10031E00677F6093A60182E00E94130587EE93E04B
:10032E000197F1F700C0000088E20E9487048CE07C
:10033E000E9487040E94350586E00E948704DF91A3
:04034E00CF910895AE
:10035200DC01CB01FA01108207C0805A9648A14005
:10036200B10920812F5F2083803A26E8920721E09D
:10037200A207B10590F7118207C080519742A109E7
:10038200B10921812F5F2183803127E29207A105E4
:10039200B10598F7128207C0885E9340A109B1099E
:1003A20022812F5F2283883E23E09207A105B105B7
:1003B20098F7138207C084569109A109B1092381D4
:1003C2002F5F238384369105A105B105A0F714821E
:1003D20006C00A97A109B10924812F5F24838A30BC
:1003E2009105A105B105A8F7158206C00197A109DB
:1003F200B10925812F5F25830097A105B105B1F7CA
:0204020008955B
:1004040080E480937C0087E880937A000E946C05E6
:1004140060E086E00E94130560EF87E00E94130508
:100424000E944F010E94350587E690E00E94420534
:100434000E9451020E9422030E94A5000E949F0272
:100444000E94350560913F017091400180E841E1CF
:1004540051E00E94DA0469E471E080E849E151E086
:100464000E94DA04C1E1D1E080E28F8380E80E9437
:100474008704BE0180E80E945C0480EC0E9487042B
:1004840064E571E080E80E945C042FEF83ED90E363
:0E049400215080409040E1F700C00000C9CF29
:1004A20080E00E94B1041092A3011092A20120E008
:1004B20030E017C080FF11C0F901EE0FFF1FE258B4
:1004C200FE4F608171814091A2015091A301460FBC
:1004D200571F5093A3014093A201969587952F5FD2
:1004E2003F4F2A30310534F36091A2017091A3018C
:1004F20080E090E041E451E00E94A901A1E4B1E072
:1005020011968C911197E9E4F1E0805D8083129657
:100512008C911297805D81838EE2828313968C91F7
:100522001397805D838314968C911497805D8483E6
:0C05320015968C91805D858316820895DB
:10053E000E942C048091A4019091A5010E94250592
:10054E0080930C01803371F484E1E4E5F1E0DF0186
:10055E001D928A95E9F7AF016AE171E080E00E9491
:10056E00DA040895833289F580910D0190910E0180
:10057E00A0910F01B0911001805D9448A109B109BD
:10058E00893B9B40A105B10540F044E551E065E291
:10059E0071E080E00E94DA0408958091A2019091AA
:1005AE00A301805A9F4081349F4140F044E551E0C1
:1005BE0067E371E080E00E94DA04089544E551E0BB
:0C05CE0066E471E080E00E94DA04089509
:1005DA001F93CF93DF93D82FC091A601CF70182F06
:1005EA00107F1C2B612F82E00E941305612F686027
:1005FA0082E00E94130500000000612F677F82E0FD
:10060A000E94130520E1D29FC0011124C82B6C2F30
:10061A0082E00E9413056C2F686082E00E94130535
:10062A0000000000C77F6C2F82E00E941305C09370
:0A063A00A601DF91CF911F910895F2
:1006440010924801109247010E94A403892B51F192
:100654008CEC0E949C0484E40E949C040E94EB03A2
:10066400892BE1F30E94A4038CEC0E949C048EEB82
:100674000E949C040E944504909348018093470182
:100684000E94450420E030E0382F8091470190918A
:100694004801282B392B309348012093470180E0EF
:0A06A40090E0089580E090E80895CA
:1006AE0094EA9093BC009091BC009923E4F790914A
:1006BE00B900987F983011F0903191F78093BB007C
:1006CE0094E89093BC009091BC009923E4F790912C
:1006DE00B900987F903211F0983541F494E99093D7
:0E06EE00BC009091BC0094FDFCCFDACF0895C3
:1006FC0094EA9093BC009091BC009923E4F79091FC
:10070C00B900987F983011F0903191F48093BB0030
:10071C0084E88093BC008091BC008823E4F780912E
:10072C00B900887F883131F0803431F480E008954D
:0C073C0081E0089580E0089581E00895B8
:100748008AB180618AB98BB18F7E8BB98FE797E0C8
:100758000197F1F700C000008AB18F7E8AB98BB18A
:100768008F7E8BB9EFE8F1E03197F1F700C0000018
:1007780099B1EFEEF5E03197F1F700C0000081E0A4
:0807880094FD80E090E008956B
:10079000CF93DF93C82FD0E061E070E002C0660F16
:1007A000771F8A95E2F78FE0682783E00E941305A0
:1007B00081E00E94EE04809582958F7090E0CC0FCE
:1007C000DD1FCC0FDD1F02C0880F991FCA95E2F70D
:0607D000DF91CF910895B6
:1007D6008AB180618AB98BB18F7E8BB98AE08A959E
:1007E600F1F700C08AB18F7E8AB98BB18F7E8BB943
:1007F600E5E3EA95F1F7000099B19071E3ECF0E0DA
:100806003197F1F700C0000081E0911101C080E04E
:0408160090E00895D1
:10081A0080719AB190619AB99BB19F7E9BB99AE017
:10082A009A95F1F700C09BB1892B8BB987EE90E0BE
:10083A000197F1F700C000008AB18F7E8AB98BB1A7
:0E084A008F7E8BB995E09A95F1F70000089526
:10085800CF93DF930E94C604EC012FE785EB91E06C
:10086800215080409040E1F700C000000E94C6047B
:100878008C239D239093A5018093A401DF91CF91B0
:020888000895D1
:10088A001F93CF93DF93C0E0D0E010E007C0169526
:10089A000E94EB03892B09F010682196C830D10514
:0E08AA00B4F3812F90E0DF91CF911F9108955C
:1008B800CF92DF92EF926B01E82E06C09FEFC91A24
:1008C800D90AE90A0E947204F6018491E7FC808142
:0C08D8008111F4CFEF90DF90CF900895D5
:1008E400CF93C82F6091A60164606093A60182E053
:1008F4000E9413058C2F0E94ED0287EE93E001976E
:0A090400F1F700C00000CF91089544
:10090E00CF93C82F6091A6016B7F6093A60182E002
:10091E000E9413058C2F0E94ED0287EE93E0019743
:0A092E00F1F700C00000CF9108951A
:100938001F93CF93DF93182FC0E0D0E007C0812F1B
:10094800817081950E940D0416952196C830D105B5
:0A095800B4F3DF91CF911F910895D1
:10096200ECE7F0E09081907F8F70892B8083EAE73B
:10097200F0E080818064808380917A0086FDFCCFE4
:0A09820080917800909179000895AB
:10098C000F931F93CF93C0E000E010E006C08C2FB4
:10099C000E94C803082B192BCF5FC430C0F3C801C9
:0809AC00CF911F910F910895F6
:1009B400CF93DF93A82FCB01EA0104C00196A11DB8
:1009C40028832196FC012491A7FD20812111F6CFD3
:0809D4001882DF91CF91089514
:1009DC00CF93C82F80E40E9457038C2F0E940105EF
:1009EC0081E40E9472050E945A05C82F0E9464057A
:0609FC008C2FCF9108953D
:100A02008093BB0084E88093BC008091BC00882363
:100A1200E4F78091B900887F883211F081E008956F
:040A220080E00895D3
:100A2600CF93DF93D82FC62F80E40E9457038D2FD4
:100A36000E9401058C2F0E9401050E946405DF912A
:040A4600CF910895AF
:100A4A00E0E005C096958795EF5FE03139F080FFC9
:100A5A00F9CFF0E0EE56FE4F8081089580E00895C8
:100A6A0081E00E94870481E08093A6018FE19EE4E1
:0A0A7A000197F1F700C00000089595
:100A84001092C00028E12093C1009093C500809388
:0A0A9400C40086E08093C2000895BC
:100A9E00EC010E947A050E947905CE010E947B0529
:060AAE00CE010E94770555
:100AB40084E88093BC008091BC008823E4F7809193
:040AC400BB000895D6
:100AC80084E98093BC008091BC0084FDFCCF08952C
:0C0AD8001092B90088E48093B8000895E3
:060AE4000E947E0308954C
:040AEA000C94000068
:040AEE000E948B00D7
:020AF200089565
:020AF400089563
:020AF600089561
:100AF8003E007D00FA00F401E803D007A00F401F74
:060B0800803E007D00FAB2
:100B0E00140027004E009C0039017102E204C40952
:040B1E008813102701
:100B22002A3023443738394334353642313233415F
:00000001FF
