:100000000C9463000C940D010C940D010C940D01E3
:100010000C940D010C940D010C940D010C940D0128
:100020000C940D010C940D010C940D010C940D0118
:100030000C940D010C940D010C940D010C940D0108
:100040000C940D010C940D010C940D010C940D01F8
:100050000C940D010C940D010C940D010C940D01E8
:100060000C940D010C940D010C940D010C940D01D8
:100070000C940D010C940D010C940D010C940D01C8
:100080000C940D010C940D010C940D010C940D01B8
:100090000C940D010C940D010C940D010C940D01A8
:1000A0000C940D010C940D010C940D010C940D0198
:1000B0000C940D01010001028001020113000228CD
:1000C00001130116800011241FBECFEFD8E0DEBF60
:1000D000CDBFE4EBF0E040E017C0B591A5913591BC
:1000E0002591059107FD0CC095918591EF01F92FA0
:1000F000E82F05900D92A217B307D9F7FE0104C0AF
:100100001D92A217B307E1F7E53CF40731F70E940F
:0A0110008D000C940201F894FFCF5B
:10011A0082E084B91AB817B880E680937C0087E831
:10012A0080937A0081E88093800089E0809381003F
:10013A0088E08093140180910A018093880089B134
:10014A0080958093150180FF03C01092130105C0AA
:10015A0081FF03C081E08093130180911301811113
:10016A0038C083B180958093150184FD07C013C000
:10017A008FE99FE00197F1F700C0000083B18093F7
:10018A00150184FFF5CF809114018031C9F08F5F8A
:10019A008093140115C083FD07C012C08FE99FE048
:1001AA000197F1F700C0000083B18093150183FF26
:1001BA00F5CF80911401882319F08150809314019E
:1001CA00E0911401F0E0EE5FFE4F80818093880099
:1001DA00B6CFEAE7F0E080818064808380917A007C
:1001EA0086FDFCCF8091780080930101809179008F
:0A01FA008093000180938800A2CFDB
:10020400EC010E9412010E941101CE010E9413010F
:06021400CE010E940F0163
:04021A000C94000040
:04021E000E948B00AF
:0202220008953D
:0202240008953B
:02022600089539
:100228000514243343526171808F9FAEBDCDDCEC41
:01023800FBCA
:00000001FF
