:100000000C9463000C94C4020C94C4020C94C402BB
:100010000C94C4020C94C4020C94C4020C94C40248
:100020000C94C4020C94C4020C94C4020C94C40238
:100030000C94C4020C94C4020C94C4020C94C40228
:100040000C94C4020C94C4020C94C4020C94C40218
:100050000C94C4020C948D000C94C4020C94C40241
:100060000C94C4020C94C4020C94C4020C94C402F8
:100070000C94C4020C94C4020C94C4020C94C402E8
:100080000C94C4020C94C4020C94C4020C94C402D8
:100090000C94C4020C94C4020C94C4020C94C402C8
:1000A0000C94C4020C94C4020C94C4020C94C402B8
:1000B0000C94C40201000108800108012300059688
:1000C00001230126800011241FBECFEFD8E0DEBF40
:1000D000CDBFE4EBF0E040E017C0B591A5913591BC
:1000E0002591059107FD0CC095918591EF01F92FA0
:1000F000E82F05900D92A217B307D9F7FE0104C0AF
:100100001D92A217B307E1F7E53CF40731F70E940F
:0A0110002E020C94AF02F894FFCF0A
:10011A001F920F920FB60F9211242F933F934F9372
:10012A005F936F937F938F939F93AF93BF93CF9375
:10013A00EF93FF930E94BA028091780080930501A1
:10014A0080917900809302010E94C6018091250165
:10015A0041E0853009F040E091E0843009F090E018
:10016A003091240121E0363008F420E0592F52233F
:10017A0041112BC051F551E0833009F050E041E0C4
:10018A003A3008F440E04523911121C001F591E08D
:10019A00333008F490E09523E1F491E0823009F0DD
:1001AA0090E02923511117C0B1F441E0813009F0E0
:1001BA0040E021E0393008F420E0242391110DC0F9
:1001CA0061F4813061F0C0E00BC0CFE309C0CFE138
:1001DA0007C0CFE005C0C7E003C0C3E001C0C1E06B
:1001EA002091060130910701C9010A97880F991FCA
:1001FA00880F991F8338914060F02B30310548F001
:10020A006CE070E088E091E00E942701CF73C5B9E5
:10021A0007C065E070E08EE191E00E94270115B801
:10022A00FF91EF91CF91BF91AF919F918F917F9164
:10023A006F915F914F913F912F910F900FBE0F9049
:04024A001F90189554
:10024E00EF92FF920F931F93CF93DF937C018B015D
:10025E0080E80E94A302C0E0D0E007C0F701EC0FD7
:10026E00FD1F80810E9497022196C017D107B4F31B
:10027E0080EC0E94A30280912501805D0E9497026E
:10028E008CE20E94970280912401805D0E94970269
:10029E0080912301805D0E94970280E20E94970266
:1002AE0086E50E94970280E20E9497020E94FB015F
:1002BE0080910001909101010E94550280912501CB
:1002CE00882321F0805D0E94970203C080E20E9485
:1002DE00970280912401805D0E94970280912301F4
:1002EE00805D0E94970280E20E94970280E70E9442
:1002FE00970280E70E9497028DE60E949702DF9197
:0C030E00CF911F910F91FF90EF90089588
:10031A002FEF83EC99E0215080409040E1F700C034
:10032A00000020E030E010C080E38BB98BB1886018
:10033A008BB98BB1877F8BB987EE93E00197F1F781
:10034A0000C000002F5F3F4F233031056CF380E27D
:10035A008BB98BB188608BB98BB1877F8BB987EEEC
:10036A0093E00197F1F700C0000088E20E94A3021F
:10037A008CE00E94A3020E94BA0286E00E94A302B5
:02038A000895D4
:10038C008091020183708093020120E030E040E014
:10039C0050E020C02830310574F49091050190FF95
:1003AC0006C0F901EC5EFE4F8081480F511D9695F9
:1003BC00909305010DC08091020180FF06C0F901E8
:1003CC00EC5EFE4F9081490F511D86958093020182
:1003DC002F5F3F4F2A303105ECF2509307014093C9
:0A03EC000601CA010E94550208959F
:1003F600209106013091070144E6429FC001439FC8
:10040600900D1124885E9340880F892F881F990BC1
:10041600919590930101809300012E3441E03407B9
:1004260030F00297909301018093000108C0273AAB
:10043600310528F001979093010180930001809186
:100446000001909101018C38914020F01092010139
:0604560010920001089560
:10045C008FEF8AB984B915B81BB80E948D012FEFA4
:10046C0081EE94E0215080409040E1F700C0000004
:10047C0083E480937C008FE880937A0078942FE754
:10048C0083EA94E0215080409040E1F700C00000E6
:0E049C00EAE7F0E08081806480837894F0CFFE
:1004AA001092250107C084569109209125012F5FDA
:1004BA002093250184369105B0F71092240106C0D5
:1004CA000A97209124012F5F209324018A309105F5
:1004DA00B8F71092230106C00197209123012F5FDC
:0A04EA00209323010097C1F7089545
:1004F40029B12F70982F907F922B9BB99BB1986054
:100504009BB9000000009BB1977F9BB930E1839FAA
:10051400C0011124822B8BB98BB188608BB9000088
:0A05240000008BB1877F8BB90895AA
:10052E009BB194609BB90E947A0287EE93E001978B
:08053E00F1F700C00000089570
:100546009BB19B7F9BB90E947A0287EE93E001974D
:08055600F1F700C00000089558
:10055E00EC010E94C9020E94C802CE010E94CA028A
:06056E00CE010E94C6024E
:1005740081E00E94A3028FE19EE40197F1F700C09D
:0405840000000895D6
:040588000C940000CF
:04058C000E948B003E
:020590000895CC
:020592000895CA
:020594000895C8
:0C0596004741532044455445435445441C
:0A05A2000101020408101F3E7DFA5B
:0505AC00434C454152E3
:00000001FF
