:020000020000FC
:1000000027C0DF93CF93BF93AF93AFB7AF93D030F9
:1000100019F4C03019F40895000000000000BCE09D
:10002000A8E700001197E9F7219759F00000BFE019
:10003000AEE90000000000001197F1F72197B9F731
:100040000000AF91AFBFAF91BF91CF91DF91089505
:10005000E0EBF0E098E0389611E81093800019E0AA
:100060001093810012E014B915B91FEF1AB9449129
:100070004093880013B11095212F287081F41071DE
:1000800029F44491409388004BB9F4CF13B11095F3
:100090001071E1F79031A9F331969395F2CF13B136
:1000A00010951870E1F7903061F331979A95E9CF88
:1000B0000514243343526171808F9FAEBDCDDCECBB
:0200C000FB0043
:00000001FF
