:100000005CC00000CFC00000CEC00000CBC000002C
:10001000C9C00000C7C00000C5C00000C3C00000C8
:10002000C1C00000BFC00000BDC00000BBC00000D8
:10003000B9C00000B7C00000B5C00000B3C00000E8
:10004000B1C00000AFC00000ADC00000ABC00000F8
:10005000A9C00000A7C00000A5C00000A3C0000008
:10006000A1C000009FC000009DC000009BC0000018
:1000700099C0000097C0000095C0000093C0000028
:1000800091C000008FC000008DC000008BC0000038
:1000900089C0000087C0000085C0000083C0000048
:1000A00081C000007FC000007DC000007BC0000058
:1000B00079C0000001000103800011241FBECFEFB2
:1000C000D8E0DEBFCDBFE4EBF0E040E017C0B59173
:1000D000A59135912591059107FD0CC095918591CC
:1000E000EF01F92FE82F05900D92A217B307D9F76A
:1000F000FE0104C01D92A217B307E1F7E93BF40724
:0A01000031F70AD002C0F894FFCFD7
:0E010A00EC014AD046D0CE0145D0CE0144D003
:100118001092010110920001109202018CE080936C
:10012800690082E08DBB78948FEF84B91AB88BB9D7
:1001380015B8809100019091010128E03FEF0097E8
:10014800E9F0883B9B4020F0809102018130F1F07A
:1001580025B9109202018FE99FE00197F1F700C0DD
:1001680000008091000190910101009741F30197EF
:100178009093010180930001009719F7F89415B83E
:1001880078948091000190910101D9CFF89435B904
:040198007894E1CFA7
:02019C000895C4
:02019E000895C2
:0201A000B2DFCC
:0201A2000895BE
:0201A4002DCF5D
:1001A6001F921FB61F9211242F938F939F9382E065
:1001B6008CBB8CB3882349F08FE19EE40197F1F75D
:1001C60000C000008CB38111F7CF1092020180911C
:1001D600000190910101855691098C339F4018F4D6
:1001E60081E08093020180EA9FE090930101809371
:1001F60000019F918F912F911F901FBE1F90189500
:00000001FF
