:100000000C9460000C940F010C940F010C940F01E0
:100010000C940F010C940F010C940F010C940F0120
:100020000C940F010C940F010C940F010C940F0110
:100030000C940F010C940F010C940F010C940F0100
:100040000C940F010C940F010C940F010C940F01F0
:100050000C940F010C940F010C940F010C940F01E0
:100060000C940F010C940F010C940F010C940F01D0
:100070000C940F010C940F010C940F010C940F01C0
:100080000C940F010C940F010C940F010C940F01B0
:100090000C940F010C940F010C940F010C940F01A0
:1000A0000C940F010C940F010C940F010C940F0190
:1000B0000C940F0101000101800101011100022CCB
:1000C00011241FBECFEFD8E0DEBFCDBFE4EBF0E0E0
:1000D00040E017C0B591A59135912591059107FD97
:1000E0000CC095918591EF01F92FE82F05900D92A5
:1000F000A217B307D9F7FE0104C01D92A217B307D8
:10010000E1F7E03CF40731F70E94B1000C94F600EF
:04011000F894FFCF91
:1001140094EA9093BC009091BC009923E4F79091E9
:10012400B900987F983011F0903191F78093BB001B
:1001340094E89093BC009091BC009923E4F79091CB
:10014400B900987F903211F0983541F494E9909376
:0E015400BC009091BC0094FDFCCFDACF089562
:1001620080EF84B985B18F6085B98FEF87B90E941E
:10017200090160E086E00E94E400E3B1E095EF70DF
:10018200E0930001F0E0EF5FFE4F808188B9E091DB
:100192000001F0E0EF5FFE4F608182E00E94E40028
:0201A200ECCFA0
:1001A4008093BB0084E88093BC008091BC008823CA
:1001B400E4F78091B900887F883211F081E00895D6
:0401C40080E008953A
:1001C800CF93DF93D82FC62F80E40E948A008D2F0B
:1001D8000E94D2008C2F0E94D2000E940101DF9160
:0401E800CF91089516
:1001EC00EC010E9414010E941301CE010E94150122
:0601FC00CE010E9411017A
:1002020084E98093BC008091BC0084FDFCCF0895FA
:0C0212001092B90088E48093B8000895B1
:04021E000C9400003C
:040222000E948800AE
:02022600089539
:02022800089537
:02022A00089535
:10022C0001010101010101020000000000030102B3
:00000001FF
